:100000000C94E2010C94FF010C94FF010C94FF018D
:100010000C94FF010C94FF010C94FF010C94FF0160
:100020000C94FF010C94FF010C94FF010C94F70356
:100030000C94FF010C9401020C94FF010C94FF013D
:100040000C94FF010C94FF010C94FF010C94FF0130
:100050000C94FF0170888888888870081828080820
:100060000808708808102040F8F8102010088870E0
:1000700010305090F81010F880F008088870304068
:1000800080F0888870F80810202020207088887000
:1000900088887070888878081060081020202810E0
:1000A00028D02050901020C03010101010103808A8
:1000B00010101020202080808890A0D0880000F0B0
:1000C000A8A8A8A8000000F8000000000000000098
:1000D0000000004000C04040E00000C0A0A0A0A080
:1000E000200020202020E0000060804020C0000090
:1000F000A0A06040800000E0204080E00000E080A0
:100100008080E00000E0A08080800000A0A040A0EF
:10011000A00000E0A0E080800040E040404060009F
:100120008080C0A0A0A00000E080C08080000040CF
:1001300040E0A0A00000C08080A0C0000040A0A0BF
:10014000A040788484848484848478040C14040417
:10015000040404047884040810204080FC7884049B
:10016000043804048478081828488888FC0808FCA7
:10017000808080F80404847878848080F884848483
:1001800078FC04081020202020207884848478843F
:10019000848478788484847C0810204008141408AF
:1001A00000000000007088808080808088700000DF
:1001B0000000FC0000000000000000000000000043
:1001C000000000000000003030000080009000F0CF
:1001D00000F100E700E720CFF08FE08FC09FE0FF45
:1001E000F0F3E000000000000000A0000002480062
:1001F00000064C0000011000000842000006EC0060
:100200000008420000011007FC064C0040024807AD
:10021000FC00A01C0338005000A80050004800500B
:100220000004007000040050000400500004005856
:10023000000400040048000200A80001FF180000AC
:1002400000000000000000000000000000000003AB
:10025000C003C003C003C03FFFFFFC3FFFFFFC30F3
:1002600000000C3000018C3000018C37E007EC37C7
:10027000E007EC3000018C3000018C3000000C30C5
:1002800000000C3000000C3000000C3000000C307E
:1002900000000C3FFFFFFC3FFFFFFC0000000000E0
:1002A00000000001FF800003FFD8000300CC000322
:1002B00000C7000300C3800300C1E00300C1E003E6
:1002C00000C0C00300C0C003FFF0C003FFF8C003BC
:1002D00081D8C00381D8C00381D8C00381D8C003AE
:1002E00081D8C00381D8C00381D8C00381D8C0039E
:1002F00081DDC00381CF8003FFC70007FFE0000757
:10030000FFE00000018000000180000001FF80008C
:1003100001FF8000018000000180000001FF8000DB
:1003200001FF8000018000000180000001FF8000CB
:1003300001FF8000018000000180000001800000BA
:1003400003C0002387E1C43FF7EFFC1C77EE3800C1
:1003500003C0000000000001C71C700FFFFFF00E7B
:1003600038E38000000000040FF0200E3FFC701EF8
:10037000781E781CE0073839C1839C3B8181DC738F
:100380000180CE730180CE7601806EE6018067E643
:10039000018067E6018067E60180677601806E7301
:1003A0000000CE730000CE3B8181DC39C1839C1CF0
:1003B000E007381E781E780E3FFC70040FF0200016
:1003C0000000000011241FBECFE5D8E0DEBFCDBF86
:1003D00011E0A0E6B0E0E8E8F9E402C005900D9273
:1003E000A038B107D9F712E0A0E8B1E001C01D9232
:1003F000AA38B107E1F70E94A6040C94C2240C9419
:1004000000001F920F920FB60F9211242F933F936B
:100410004F935F936F937F938F939F93AF93BF930C
:10042000EF93FF938BB13CB18C7109F08BC180913C
:100430009E0190919F018230910529F4313FB9F4DA
:1004400083E090E007C08330910549F4303179F4BE
:1004500084E090E090939F0180939E0131C08430AE
:10046000910529F4313C99F485E090E0F3CF853093
:10047000910529F4313F99F486E090E0EBCF863086
:10048000910529F4303199F487E090E0E3CF87308B
:10049000910529F43632A1F488E090E0DBCF883072
:1004A000910529F4313661F48BE090E0D3CF8B30A5
:1004B000910530F0019690939F0180939E01232F28
:1004C00080919E0190919F018B30910508F43AC173
:1004D0008A50843238F085E090E090939F018093B9
:1004E0009E0130C18B3008F42DC18B3049F4622F4E
:1004F00070E06852704070938D0160938C0122C14E
:100500008C3079F5622F70E060587F4F882777FD37
:100510008095982F0E94222123E333E34BE651E498
:100520000E94EA1E20E030E040E85BE30E94EA1E01
:10053000262F372F482F592F2093AD013093AE012E
:100540004093AF015093B00120E030E040E251E42D
:100550000E94EA1E0E94822170938F0160938E0197
:10056000F1C08D3029F42093900110929101EAC0DE
:100570008E3049F468E2269FB001112470939301F4
:1005800060939201DFC0813129F42093940110928D
:100590009501D8C0823159F5622F70E080E090E07B
:1005A0000E94D42120E030E040E053E40E948C1E01
:1005B00020E030E040E85BE30E94EA1E262F372F60
:1005C000482F592F2093AD013093AE014093AF01D6
:1005D0005093B00120E030E048EC52E40E94EA1E63
:1005E0000E9482217093970160939601ABC0833182
:1005F00009F048C01092A10127FF03C080E8809352
:10060000A101622F26FF05C08091A1018064809323
:10061000A10165FF05C08091A10180628093A101C5
:1006200064FF05C08091A10180618093A10163FFF7
:1006300005C08091A10188608093A10162FF05C07F
:100640008091A10184608093A10161FF05C0809128
:10065000A10182608093A10160FF05C08091A1018A
:1006600081608093A1018091A10187FD8F5F8595B5
:100670008093A101992787FD90959093990180938C
:10068000980160C0893179F18A3159F5722F60E0A3
:1006900080914B02680F711D882777FD8095982FF8
:1006A0000E94222120E030E04AEF52E40E94E41F41
:1006B000262F372F482F592F2093AD013093AE01AD
:1006C0004093AF015093B00120E030E040E251E4AC
:1006D0000E94EA1E0E94822170939B0160939A01FE
:1006E00031C0813219F420934B022CC0823251F573
:1006F000722F60E080914B02680F711D882777FD93
:100700008095982F0E94222120E030E040E05CE3B9
:100710000E94EA1E262F372F482F592F2093AD0114
:100720003093AE014093AF015093B00120E030E030
:1007300040E251E40E94EA1E0E94822170939D01D2
:1007400060939C01FF91EF91BF91AF919F918F9129
:100750007F916F915F914F913F912F910F900FBEBD
:100760000F901F901895FC0105C05D9BFECF8191F5
:100770008CB961506623C9F7089583B7856083BF3C
:1007800081E088BF89B7816089BF83E682BF80E04E
:1007900090E0FC01EE0FFF1FEE0FFF1FE80FF91FA7
:1007A000EF54FE4F1182108201968E31910589F728
:1007B000089520E030E0F901EE0FFF1FEE0FFF1F5C
:1007C000E20FF31FEF54FE4F408151814115510557
:1007D00039F49183808314827383628381E0089566
:1007E0002F5F3F4F2E31310531F780E008951F9282
:1007F0000F920FB60F9211242F933F934F935F9355
:100800006F937F938F939F93AF93BF93EF93FF93D8
:100810008091470290914802A0914902B0914A020A
:100820000196A11DB11D8093470290934802A093A9
:100830004902B0934A0283E682BF80E090E041E043
:10084000FC01EE0FFF1FEE0FFF1FE80FF91FEF5423
:10085000FE4F2081318121153105A1F02481222311
:1008600089F4228133812115310561F022813381A0
:100870002150304033832283228133812115310579
:1008800009F4448301968E319105D1F68091A2013D
:100890009091A301CB9B14C08B309105B0F0893CA3
:1008A000910518F086E89CE102C087E89CE161E0D0
:1008B00070E00E94D9031092A3011092A20105C01A
:1008C00001969093A3018093A201FF91EF91BF91B4
:1008D000AF919F918F917F916F915F914F913F91D8
:1008E0002F910F900FBE0F901F9018950F931F938D
:1008F000CF93DF9380E090E0EC01CC0FDD1FCC0FB5
:10090000DD1FC80FD91FCF54DE4F28813981211533
:10091000310599F08E010C5F1F4F2C81213069F455
:100920002A813B812115310541F4E881F98109953E
:10093000F80110821982188204C001968E31910547
:10094000D9F6DF91CF911F910F9108950E94C613A0
:100950000E94FD1382E00E9462140E94BD0383EE98
:1009600097E164E170E00E94D90388EE94E164E1CC
:1009700070E00E94D9038FEE95E164E170E00E947F
:10098000D9038DE297E164E170E00E94D90387ED1D
:100990009CE16EE170E00E94D90382EB9CE168EE7D
:1009A00073E00E94D90381E098E164E670E00E9460
:1009B000D90310BC8FE589B91BB888E98AB986E8E4
:1009C00080BDCB9B07C081E090E090939F01809316
:1009D0009E0106C08DE491E090939D0180939C015F
:1009E0008EE398E164E670E00E94D9038CE098E120
:1009F00068EC70E00E94D90389E698E164E670E053
:100A00000E94D90387EB98E16AE070E00E94D90365
:100A100078940E947604FDCFB99AC19AB89A089545
:100A200087B3806B87BB80E58DB98DB18C7F8DB925
:100A3000709AC29A08958FB9779BFECF0895C29895
:100A4000C0988FB9779BFECFC29A0895C09AC2987A
:100A50008FB9779BFECFC29A08951F93DF93CF93F0
:100A6000CDB7DEB727970FB6F894DEBF0FBECDBF68
:100A7000182F8AE22F833E834B835A836D837C83B6
:100A800099830E941F059981892F0E942605812F35
:100A90000E9426055A81852F0E9426054B81842FAE
:100AA0000E9426058BE20E941F057C81872F0E94F1
:100AB00026056D81862F0E9426053E81832F0E9488
:100AC00026052F81822F0E9426058CE20E941F0599
:100AD00027960FB6F894DEBF0FBECDBFCF91DF9142
:100AE0001F910895C19A8FEF91EEA4E0815090403C
:100AF000A040E1F700C00000C1988FEF91EEA4E0A4
:100B000081509040A040E1F700C00000C19A8FEFF3
:100B100091EEA4E081509040A040E1F700C00000B9
:100B200008950E940C050E9410050E94720581E044
:100B30000E941F058FEF99E6A8E181509040A040E8
:100B4000E1F700C000008BEC0E941F0589E30E94C2
:100B500026058CE20E94260580E00E94260584E39B
:100B60000E94260582E00E9426058FEC0E941F0548
:100B700080E00E94260581EC0E94260580E30E9409
:100B8000260588EE0E941F0585E80E94260580E064
:100B90000E94260588E70E9426058AEE0E941F050E
:100BA00080E00E94260580E00E9426058DEE0E94CE
:100BB0001F0584E60E94260583E00E94260582E147
:100BC0000E94260581E80E94260587EF0E941F05E6
:100BD00080E20E94260580EC0E941F0583E20E94AD
:100BE000260581EC0E941F0580E10E94260585EC08
:100BF0000E941F058EE30E94260588E20E942605BA
:100C000087EC0E941F0586E80E94260586E30E9465
:100C10001F0588E40E9426058AE30E941F0585E5DA
:100C20000E94260581EB0E941F0580E00E94260598
:100C300088E10E94260586EB0E941F0588E00E943D
:100C4000260582E80E94260587E20E94260582EF9B
:100C50000E941F0580E00E94260586E20E941F0573
:100C600081E00E94260580EE0E941F058FE00E9411
:100C7000260581E30E9426058BE20E9426058CE072
:100C80000E9426058EE00E94260588E00E94260527
:100C90008EE40E94260581EF0E94260587E30E94CC
:100CA000260587E00E94260580E10E94260583E054
:100CB0000E9426058EE00E94260589E00E942605F6
:100CC00080E00E94260581EE0E941F0580E00E94C0
:100CD00026058EE00E94260584E10E94260583E019
:100CE0000E94260581E10E94260587E00E942605D4
:100CF00081E30E94260581EC0E94260588E40E947B
:100D0000260588E00E9426058FE00E9426058CE0DB
:100D10000E94260581E30E94260586E30E9426059F
:100D20008FE00E94260581E10E941F058FEF9DEE56
:100D3000A2E081509040A040E1F700C0000089E2AD
:100D40000E941F050895C09AC2989FB9779BFECF55
:100D5000C29AC09AC2988FB9779BFECFC29A089563
:100D6000EF92FF920F931F93CF93DF93EA017901E4
:100D7000AC01415050409E01220F331F2C0F3D1FEC
:100D8000420F531F9B0121503040F701EE0FFF1F10
:100D9000EE0DFF1D2E0F3F1F0E942D05CE0123E0FB
:100DA000880F991F2A95E1F78C0F9D1F8E9DE001FA
:100DB0008F9DD00D9E9DD00D112404C0C8010E94AE
:100DC000A30621972097D1F7DF91CF911F910F9123
:100DD000FF90EF900895CF92DF92EF92FF920F93E2
:100DE0001F93CF93DF937A01E9016801AC01415071
:100DF00050404E0D5F1D9B01215030402C0F3D1F78
:100E00000E942D05CE9D8001CF9D100DDE9D100D01
:100E1000112405C0C6010E94A3060150104001150F
:100E20001105C1F7DF91CF911F910F91FF90EF90C6
:100E3000DF90CF900895CF93DF93EA01AC014E5F2E
:100E40005F4F9B012E5F3F4F0E942D05CE010E94F8
:100E5000A306CE010E94A306CE010E94A306CE01E6
:100E60000E94A306CE010E94A306CE010E94A30603
:100E7000CE010E94A306CE010E94A306CE010E94CD
:100E8000A306DF91CF910895CF93DF93EA01AC01E0
:100E90004F5F5F4F9B012F5F3F4F0E942D05CE019B
:100EA0000E94A306DF91CF91089580EC93E028EB98
:100EB000C09AC2982FB9779BFECFC29AC09AC298A7
:100EC0001FB8779BFECFC29A019791F708950F93B1
:100ED0001F93182F092F80E090E060E070E04FEE44
:100EE00050E02FE331E00E942D0580EE9BE5C09A93
:100EF000C2980FB9779BFECFC29AC09AC2981FB909
:100F0000779BFECFC29A019791F70E94550780E028
:100F10009AE5C09AC2980FB9779BFECFC29AC09A41
:100F2000C2981FB9779BFECFC29A019791F70E9492
:100F3000550780EE9DE3C09AC2980FB9779BFECF0C
:100F4000C29AC09AC2981FB9779BFECFC29A0197E6
:100F500091F70E94550720E03DE2C09AC2980FB970
:100F6000779BFECFC29AC09AC2981FB9779BFECFDB
:100F7000C29A2150304089F7C39ABB9A1F910F91B2
:100F8000089580E090E06EE670E04FEE50E024E0DF
:100F900031E00E942D0580E892E5C09AC2981FB802
:100FA000779BFECFC29AC09AC2981FB8779BFECF9C
:100FB000C29A019791F70E94550780E993E3C09A7E
:100FC000C2981FB8779BFECFC29AC09AC2981FB82A
:100FD000779BFECFC29A019791F708958F929F92C7
:100FE000AF92BF92CF92DF92EF92FF920F931F9337
:100FF000CF93DF936C0180E090E063E770E040EF17
:1010000050E02AE030E000E010E00E94EB0680E0D3
:1010100090E06DE770E04FEE50E024EF30E00E948A
:101020002D050894C108D10898E1892E51C0C4301B
:10103000D10518F4F501949001C0992488E0E82EB8
:10104000F12C97FE13C080E098EB0E94A30680E08D
:1010500098EB0E94A30680E098EB0E94A30680E034
:1010600098EB0E94A30680E098EB12C080E090E02D
:101070000E94A30680E090E00E94A30680E090E03A
:101080000E94A30680E090E00E94A30680E090E02A
:101090000E94A3060894E108F108E114F10411F09C
:1010A000990CCFCF21960894A11CB11CC530D10555
:1010B00009F0BDCF0150104021F05601CFEFDFEF16
:1010C000BCCF8A9484E090E0C80ED91E882019F025
:1010D00005E010E0F2CF80E090E065EF70E040EFD7
:1010E00050E02AE030E000E010E00E94EB06DF91E3
:1010F000CF911F910F91FF90EF90DF90CF90BF9015
:10110000AF909F908F900895DF92EF92FF920F9390
:101110001F93CF93DF9388E390E060E070E047EBAC
:1011200050E02FE530E00E942D0538E1D32E24C099
:1011300080E090E00E94A30680E090E00E94A30679
:1011400080E090E00E94A30680E090E00E94A30669
:101150000894E108F108E114F10451F7015010403E
:1011600021F028E0E22EF12CE3CF219719F004E0E2
:1011700010E0F7CFDA9419F0C4E0D0E0F8CFDF91B7
:10118000CF911F910F91FF90EF90DF9008958F9274
:101190009F92AF92BF92CF92DF92EF92FF920F9306
:1011A0001F93CF93DF93E82E092F88E390E060E050
:1011B00070E047EB50E02FE530E00E942D05CE2C8B
:1011C000D02E58E1952E43C0F501849048E0E42EDE
:1011D000F12C87FE0FC080E69EEF0E94A30680E6FA
:1011E0009EEF0E94A30680E69EEF0E94A30680E683
:1011F0009EEF0EC080E090E00E94A30680E090E0A9
:101200000E94A30680E090E00E94A30680E090E0A8
:101210000E94A3060894E108F108E114F10411F01A
:10122000880CD7CF0F5F1F4F0894A11CB11C04304E
:10123000110551F6219721F0560100E010E0C4CFCE
:101240009A9484E090E0C80ED91E992019F0C4E069
:10125000D0E0F2CFDF91CF911F910F91FF90EF90EF
:10126000DF90CF90BF90AF909F908F900895809126
:10127000A40190E0509183014091840160918A0122
:10128000309186012091880153C08230910519F177
:101290008330910524F48130910539F411C08330F5
:1012A000910541F184309105B1F1552309F43FC016
:1012B00080916900882311F01092690081E028C0B4
:1012C0004423A9F180916900813019F081E0809375
:1012D000690082E01DC0662351F18091690082306F
:1012E00021F083EE91E00E94C70882E080936900BC
:1012F00083E00EC03323D9F080916900833021F060
:1013000083E492E00E94C70883E08093690084E050
:101310008093A4010895222351F0809169008430C4
:1013200021F083EA92E00E94C70884E018C0019689
:10133000853091050CF4A9CF552399F4442389F401
:1013400080918501882369F4332359F4222349F4D9
:1013500080916900873329F00E94840887E3809395
:1013600069001092A40108950F931F934BE150E080
:101370002BE130E000E010E00E94EB061F910F919E
:1013800008952F923F924F925F926F927F928F9229
:101390009F92AF92BF92CF92DF92EF92FF920F9304
:1013A0001F93DF93CF93CDB7DEB728970FB6F8948E
:1013B000DEBF0FBECDBF5C0178876F836A01582EF8
:1013C000BE824F80E884ED825CE0252E312C280E11
:1013D000391E4CE0842E912C860E971E642D7E2D96
:1013E000A10194010E942D0500E010E0F801E653F0
:1013F000FE4F649035E0E32EF12C63FE02C0C6017F
:1014000002C080E090E00E94A3060894E108F10881
:10141000E114F10411F06694F0CFF801E753FE4FA8
:10142000649028E0E22EF12C862D817811F0C6011F
:1014300002C080E090E00E94A3060894E108F10851
:10144000E114F10411F06694EFCF0E5F1F4F0A31E3
:10145000110561F69501225F3F4F3A832983C5014B
:101460004A969C838B83C901642D7D814B815C816D
:1014700094010E942D0500E010E0F801E753FE4FB3
:10148000849098E0E92EF12C87FE02C0C60102C0CC
:1014900080E090E00E94A3060894E108F108E114BE
:1014A000F10411F0880CF0CFF801E653FE4F849060
:1014B00085E0E82EF12C87FE02C0C60102C080E064
:1014C00090E00E94A3060894E108F108E114F104F9
:1014D00011F0880CF0CF0E5F1F4F0A31110569F62D
:1014E000BEE08B2E912CEF81F8858E0E9F1EAAE117
:1014F0006A2E712C6E0E7F1E852D9E81B401A10176
:1015000093010E942D0509E110E0180108942108BB
:101510003108F801E753FE4F5490F5E0EF2EF12C1F
:1015200053FE02C0C60102C080E090E00E94A30604
:101530000894E108F108E114F10411F05694F0CF99
:10154000F101E753FE4F2490E8E0EE2EF12C822DBE
:10155000817811F0C60102C080E090E00E94A306ED
:101560000894E108F108E114F10411F02694EFCF9A
:1015700002501040FFEF0F3F1F0709F0C6CF8981CF
:101580009A81B4014B815C8193010E942D0508E191
:1015900010E0F801E753FE4F849078E0E72EF12C3D
:1015A00087FE02C0C60102C080E090E00E94A30650
:1015B0000894E108F108E114F10411F0880CF0CF6F
:1015C000F801E653FE4F849065E0E62EF12C87FE8D
:1015D00002C0C60102C080E090E00E94A306089409
:1015E000E108F108E114F10411F0880CF0CF025089
:1015F00010402FEF0E3F120761F685010B5F1F4F62
:101600006F8178856F5F7F4FC80140E050E00E9496
:1016100044076F8178856E5F7F4FC80140E050E0DE
:101620000E9444076F8178856D5F7F4FC80140E05D
:1016300050E00E9444076F817885675E7F4FC80144
:1016400040E050E00E9444076F817885685E7F4FDC
:10165000C80140E050E00E9444076F817885695ED0
:101660007F4FC80140E050E00E944407C5010D963D
:10167000642D7D8141E050E02BE130E000E018EB8B
:101680000E94EB066F817885635F7F4FC5010A96E4
:1016900047E050E021E030E00E94EB0628960FB6CC
:1016A000F894DEBF0FBECDBFCF91DF911F910F9198
:1016B000FF90EF90DF90CF90BF90AF909F908F9072
:1016C0007F906F905F904F903F902F9008959F92E2
:1016D000AF92BF92CF92DF92EF92FF920F931F9340
:1016E000CF93DF93042FE901AC014F5E5F4F9B0165
:1016F000265E3F4F0E942D0589E0089F800111243E
:10170000A9E0AA2EB12CA00EB11EF2E4CF2EF1E07A
:10171000DF2EC00ED11EF6019490E6E0EE2EF12CE5
:1017200097FE08C0CE010E94A306CE010E94A30628
:10173000CE010AC080E090E00E94A30680E090E025
:101740000E94A30680E090E00E94A3060894E108AE
:10175000F108E114F10411F0990CE2CFF601949034
:1017600076E0E72EF12C97FE08C0CE010E94A3067A
:10177000CE010E94A306CE010AC080E090E00E9444
:10178000A30680E090E00E94A30680E090E00E9423
:10179000A3060894E108F108E114F10411F0990C92
:1017A000E2CFF601C49066E0E62EF12CC7FE08C039
:1017B000CE010E94A306CE010E94A306CE010AC05C
:1017C00080E090E00E94A30680E090E00E94A306E3
:1017D00080E090E00E94A3060894E108F108E1147B
:1017E000F10411F0CC0CE2CF0F5F1F4F0A151B055F
:1017F00009F08BCFDF91CF911F910F91FF90EF9068
:10180000DF90CF90BF90AF909F900895CF92DF92DE
:10181000EF92FF920F931F93CF93DF937C01EB0125
:1018200080916200882361F5C70140E058EB0E9477
:10183000C10912E3C12ED12CCE0CDF1CC601BE01A2
:1018400046E050E024E030E000E010E00E94B00606
:10185000BE01645F7F4FC60141E150E023E030E00C
:1018600000E018EB0E94EB06BE01615F7F4FC601EE
:1018700046E050E024E030E000E010E00E94B006D6
:10188000809162008130F1F4C701BE0140E058EB65
:101890000E94C109BE016B5F7F4FC701C99643E03B
:1018A00050E021E130E000E018EB0E94EB06BE01C1
:1018B000645F7F4FC701C29641E150E023E030E012
:1018C0000E94EB06809162008230E1F4C701BE0104
:1018D0000E94B409BE016B5F7F4FC701C99643E008
:1018E00050E021E130E000E018EB0E94EB06BE0181
:1018F000645F7F4FC701C29641E150E023E030E0D2
:101900000E94EB0680916200833009F04DC0C70150
:10191000BE010E94B409B2E3CB2ED12CCE0CDF1C49
:10192000C601BE0146E050E024E030E000E010E0F7
:101930000E94B006BE01645F7F4FC60141E150E0E6
:1019400023E030E00E94EB06BE01615F7F4FC601DD
:1019500046E050E024E030E00E94B006C7018A5B18
:101960009F4FBE014CE020E038EB0E94670BC7019F
:10197000855A9F4FBE014CE020E038EB0E94670B78
:10198000BE016B5E7F4FC7018D589F4F42E050E014
:1019900022E030E000E018EB0E94B006C701815859
:1019A0009F4FBE014CE02DC040916300C7018A5B90
:1019B0009F4F442319F4BE014DE001C0BE0120E059
:1019C00038EB0E94670BC701855A9F4FBE014091BB
:1019D000640020E038EB0E94670BBE016B5E7F4F16
:1019E000C7018D589F4F42E050E022E030E000E018
:1019F00018EB0E94B006C70181589F4FBE0140916D
:101A0000650020E038EB0E94670BC7018C569F4FA2
:101A1000BE014AE020E038EB0E94670BC701875502
:101A20009F4FBE014BE020E038EB0E94670BDF9137
:101A3000CF911F910F91FF90EF90DF90CF9008957D
:101A4000FF920F931F93382FF62E042F122F8AE048
:101A500090E069E870E0432F20E038EB0E94670BCC
:101A60008FE190E069E870E04F2D20E038EB0E94B4
:101A7000670B84E390E069E870E0402F20E038EBEA
:101A80000E94670B89E490E069E870E0412F20E054
:101A900038EB0E94670B1F910F91FF9008959F9262
:101AA000AF92BF92CF92DF92EF92FF920F931F936C
:101AB000CF93DF93042FE901AC01425F5F4F9B019D
:101AC0002C5E3F4F0E942D0587E0089F8001112466
:101AD00047E0A42EB12CA00EB11E34E5C32E30E099
:101AE000D32EC00ED11EF601949025E0E22EF12CEB
:101AF00097FE08C0CE010E94A306CE010E94A30655
:101B0000CE010AC080E090E00E94A30680E090E051
:101B10000E94A30680E090E00E94A3060894E108DA
:101B2000F108E114F10411F0990CE2CFF601949060
:101B300095E0E92EF12C97FE08C0CE010E94A30685
:101B4000CE010E94A306CE010AC080E090E00E9470
:101B5000A30680E090E00E94A30680E090E00E944F
:101B6000A3060894E108F108E114F10411F0990CBE
:101B7000E2CFF601C49085E0E82EF12CC7FE08C044
:101B8000CE010E94A306CE010E94A306CE010AC088
:101B900080E090E00E94A30680E090E00E94A3060F
:101BA00080E090E00E94A3060894E108F108E114A7
:101BB000F10411F0CC0CE2CF0F5F1F4F0A151B058B
:101BC00009F08BCFDF91CF911F910F91FF90EF9094
:101BD000DF90CF90BF90AF909F900895CF92DF920B
:101BE000EF92FF920F931F93CF93DF93EC017B0152
:101BF000C42E842F64E60E943624482F892F6AE081
:101C00000E943624182F442339F5882309F5CE0184
:101C1000B70140E120E038EB0E944F0DCE01429623
:101C2000B70140E120E038EB0E944F0DB701615F42
:101C30007F4FCE01849642E050E022E030E000E0A9
:101C400018EB0E94B006CE018D96B70140E127C087
:101C5000CE01B70141E102C0CE01B70120E038EB6F
:101C60000E944F0DCE014296B701412F20E038EB84
:101C70000E944F0DB701615F7F4FCE01849642E015
:101C800050E022E030E000E018EB0E94B0068C2D1E
:101C90006AE00E943624492FCE018D96B70120E0DC
:101CA00038EB0E944F0DCE01CF96B70141E050E0D6
:101CB00023E030E000E018EB0E94B00659E0C52EAA
:101CC000D12CCE0CDF1CCE018E5B9F4FB60141E0C4
:101CD00050E023E030E00E94B006B7016E5E7F4F17
:101CE000CE018B5B9F4F40E058EB0E941B07CE015B
:101CF000885B9F4FB60141E050E023E030E00E9456
:101D0000B006CE01855B9F4FB70141E050E023E074
:101D100030E00E94B006DF91CF911F910F91FF90AC
:101D2000EF90DF90CF900895AF92BF92CF92DF9265
:101D3000EF92FF920F931F93CF93DF936C017B0180
:101D400048325105BCF1CA01889783389105F8F4EF
:101D5000842F64E60E943624892F2AE0622F0E9495
:101D60003624A82E842F0E943624B92ECA0164E698
:101D700070E00E94562486010E5E1F4FE601A49675
:101D8000662309F0BAC0C601B70141E1B9C0C60176
:101D900040E120E038EB0E944F0DC6014296B701AA
:101DA00040E120E038EB0E944F0DC6018496B70158
:101DB00040E155C04FE050E025E130E000E010E0A8
:101DC0000E94EB067CE0A72EB12CAC0CBD1CC5011B
:101DD000B70140E058EB0E941B078601075F1F4FC9
:101DE000B7016D5F7F4FC80140E058EB0E941B07B1
:101DF000E6012696B7016A5F7F4FCE0140E058EBBF
:101E00000E941B07B701675F7F4FC601039640E042
:101E100058EB0E941B07B701645F7F4FCE0140E083
:101E200058EB0E941B07B701615F7F4FC80140E07C
:101E300058EB0E941B07B7016E5E7F4FC50140E063
:101E400058EB0E941B07C6014296B70144E020E010
:101E500038EB0E944F0DC6018496B70140E020E0A8
:101E600038EB0E944F0DC601C696B70142E050E024
:101E700022E030E000E018EB0E94B00663E0A62EFE
:101E8000B12CAE0CBF1CC601CD96B50141E050E0AF
:101E900025E030E00E94B006E601C05CDF4FCE01D5
:101EA000B70143E050E021E030E00E94B006B70106
:101EB0006E5E7F4FCE0143E050E021E030E00E94B3
:101EC000B006E601C75BDF4FCE01B50140E058EB3D
:101ED0000E941B07B701615F7F4FCE0140E058EBC6
:101EE0000E941B07DF91CF911F910F91FF90EF9000
:101EF000DF90CF90BF90AF900895C601B70141E049
:101F000020E038EB0E944F0DC801B7014A2D20E0B8
:101F100038EB0E944F0DCE01B7014B2DA0CF6F9231
:101F20007F928F929F92AF92BF92CF92DF92EF9269
:101F3000FF920F931F93CF93DF935C016B014EE6EB
:101F400050E022E330E000E010E00E94EB068091D8
:101F5000A001882309F04CC0C5018796B6014AE06C
:101F600020E038EB0E944F0D85010A5C1F4FC8012D
:101F7000B6014BE020E038EB0E944F0DE60166967B
:101F8000C5014496BE0141E020E038EB0E944F0DB0
:101F9000C5010B96BE014DE020E038EB0E944F0DCD
:101FA000C501BE014CE020E038EB0E944F0DC50199
:101FB0008596BE0140E020E038EB0E944F0DC8013D
:101FC000BE0140E020E038EB0E944F0DC501895B67
:101FD0009F4FBE014EE020E038EB0E944F0DC5013F
:101FE000885A9F4FBE014FE020E038EB0E944F0D12
:101FF000A4E1EA2EF12CEA0CFB1C8091A0018130B7
:1020000049F5C701B60142E120E038EB0E944F0DCF
:10201000C5018596B60143E120E038EB0E944F0DE3
:10202000C501C696B60144E120E038EB0E944F0D91
:10203000E6016696C501C996BE014FE020E038EB87
:102040000E944F0DC701C696BE0145E120E038EB66
:102050000E944F0D8091A0018230D1F4E601669676
:10206000C7014496BE0146E120E038EB0E944F0DC7
:10207000C7018596BE0141E220E038EB0E944F0D7A
:10208000C701C696BE0147E120E038EB0E944F0D24
:102090008091A0018330D1F4E6016696C701449691
:1020A000BE0148E120E038EB0E944F0DC701859644
:1020B000BE0141E220E038EB0E944F0DC701C696F9
:1020C000BE0149E120E038EB0E944F0D8091A00154
:1020D0008430D1F4E6016696C7014496BE0149E119
:1020E00020E038EB0E944F0DC7018596BE014AE102
:1020F00020E038EB0E944F0DC701C696BE014AE1B1
:1021000020E038EB0E944F0D8091A0018530D1F482
:10211000E6016696C7014496BE0149E120E038EB2E
:102120000E944F0DC7018596BE014BE120E038EBC0
:102130000E944F0DC701C696BE014FE020E038EB6C
:102140000E944F0D8091A001863049F5C701B6016C
:102150004CE120E038EB0E944F0DC7014196B601DB
:102160004DE120E038EB0E944F0DC7018296B60189
:1021700049E120E038EB0E944F0DE6016696C70169
:102180008596BE014BE120E038EB0E944F0DC70160
:10219000C696BE0141E220E038EB0E944F0D8091CF
:1021A000A0018730D1F4E6016696C7014496BE01CE
:1021B0004CE120E038EB0E944F0DC7018596BE012F
:1021C0004DE020E038EB0E944F0DC701C696BE01DE
:1021D0004FE120E038EB0E944F0D8091A001883044
:1021E00009F04BC0E6016696C7014496BE014CE17A
:1021F00020E038EB0E944F0DC701C696BE0142E0B9
:1022000050E022E030E000E018EB0E94B006F9E177
:102210008F2E912C8C0C9D1CC701CD96B40141E0F2
:1022200050E025E030E00E94B006E0E4AE2EB12C94
:10223000AE0CBF1CC501BE0143E050E021E030E020
:102240000E94B006B601685D7F4FC50143E050E0D3
:1022500021E030E00E94B006E701C75BDF4FCE010E
:10226000B40140E058EB0E941B07B6016B5D7F4F45
:10227000CE0140E058EB0E941B078091A0018930FD
:10228000D1F4E6016696C7014496BE0140E220E023
:1022900038EB0E944F0DC7018596BE014FE120E04B
:1022A00038EB0E944F0DC701C696BE0145E120E004
:1022B00038EB0E944F0DDF91CF911F910F91FF904E
:1022C000EF90DF90CF90BF90AF909F908F907F90D6
:1022D0006F9008958091A50190E030918701209141
:1022E000890120C08130910581F03323D1F08091A4
:1022F0006A00882321F083E093E00E94EE071092A9
:102300006A0081E08093A5010895222351F0809115
:102310006A00813021F083E693E00E94EE0781E0BD
:102320001BC0019682309105ECF23323B9F42223CD
:10233000A9F480916A00873389F00E94C10784E183
:1023400090E06CED70E00E94060C82E890E06CE793
:1023500070E00E948F0F87E380936A001092A501BE
:102360000895CF92DF92EF92FF920F931F93CF9336
:10237000DF937C016B016E5F7F4F4CE150E022E008
:1023800030E000E018EB0E94EB06B6016F5E7F4F75
:10239000C7014CE150E022E030E00E94EB06E6018C
:1023A0002496C701BE0142E050E02DE030E00E94DB
:1023B000EB06C7014A96BE0142E050E02DE030E056
:1023C0000E94EB06C7010496B60144E050E022E00B
:1023D00030E00E94EB06C7014496B60144E050E0AD
:1023E00022E030E00E94EB06E6012796C701039643
:1023F000BE0146E050E022E030E00E94EB06C7015B
:102400004396BE0146E050E022E030E00E94EB0639
:10241000B6016B5F7F4FC701459642E050E026E072
:1024200030E00E94EB06DF91CF911F910F91FF905A
:10243000EF90DF90CF9008952F923F924F925F924E
:102440006F927F928F929F92AF92BF92CF92DF92C4
:10245000EF92FF920F931F93DF93CF93CDB7DEB729
:102460002A970FB6F894DEBF0FBECDBF7C016B017B
:10247000019643E050E022E030E000E018EB0E94DB
:10248000EB0672E0872E912C8C0C9D1CC701B401C9
:1024900042E050E023E030E00E94EB0664E0A62E2C
:1024A000B12CAC0CBD1CC7010296B50142E050E056
:1024B00022E030E00E94EB0654E0652E712C6E0C99
:1024C0007F1CB6016F5F7F4FC30140E058EB0E9455
:1024D0004407C301B40140E058EB0E944407870160
:1024E0000B5F1F4FC801B40140E058EB0E94440746
:1024F00043E0242E312C2C0C3D1CC801B10149E0D5
:1025000050E022E030E000E018EB0E94EB06C3014F
:10251000B50142E050E028E030E00E94EB063AE0EE
:10252000632E712C6C0C7D1CC7010696B3014BE029
:1025300050E022E030E00E94EB0621E1422E512CD7
:102540004E0C5F1CC201B30140E058EB0E944407EF
:102550008601075F1F4FC201B80140E058EB0E949F
:102560004407C70142969C838B83B80140E058EB37
:102570000E944407F6013896FA83E9838B819C8197
:10258000BF0140E058EB0E94440787010D5E1F4FDA
:10259000C80169817A8140E058EB0E944407C60176
:1025A00007969E838D83C8016D817E8140E058EB44
:1025B0000E94440794E1692E712C6E0C7F1CC301AC
:1025C0006D817E8140E058EB0E94440786010A5FDE
:1025D0001F4FC301B80140E058EB0E94440785E15A
:1025E000682E712C6E0C7F1CC301B80140E058EBC3
:1025F0000E944407F6013596F887EF83C301BF01B7
:1026000040E058EB0E94440787010A5E1F4FC80153
:102610006F81788540E058EB0E944407C801B501FE
:1026200040E058EB0E9444078701095E1F4FC80134
:10263000B50140E058EB0E944407C801B10140E0F9
:1026400058EB0E94440718E1412E512C4E0C5F1CA0
:10265000C201B10140E058EB0E944407C201B4013D
:1026600040E058EB0E944407B9E16B2E712C6E0CD0
:102670007F1CC301B40140E058EB0E944407C30132
:10268000B10140E058EB0E944407C7014A969A877F
:102690008987B10140E058EB0E94440789859A85FB
:1026A000B50140E058EB0E944407C7010E96B50102
:1026B00041E050E022E030E000E018EB0E94EB0641
:1026C000C7010F966F81788543E050E022E030E04B
:1026D0000E94EB068B819C81B50144E050E022E032
:1026E00030E00E94EB06C7010896B60145E050E0D5
:1026F00022E030E00E94EB06C7010A96B40140E0F8
:1027000058EB0E94440789859A856D817E8140E05F
:1027100058EB0E94440789859A8569817A8140E057
:1027200058EB0E944407C30169817A8140E058EB6D
:102730000E944407B601645F7F4F89859A8540E017
:1027400058EB0E944407B601635F7F4FC20145E02A
:1027500050E021E030E00E94EB062A960FB6F89494
:10276000DEBF0FBECDBFCF91DF911F910F91FF90C4
:10277000EF90DF90CF90BF90AF909F908F907F9021
:102780006F905F904F903F902F9008950E94910519
:102790008FEF99E6A8E181509040A040E1F700C09A
:1027A000000080E090E00E94670782E090E06CE12A
:1027B00071E00E94B1118EE190E06BE171E040E0C8
:1027C0000E94EE0D84E890E06FE171E00E941C121F
:1027D00082EA90E06BE171E04DE451E00E94940EDA
:1027E00084E190E06CED70E00E94060C82E890E0DD
:1027F0006CE770E00E948F0F089586B1876886B9F4
:1028000087B1806E87B90895F8948330B1F0843031
:1028100028F4813071F0823070F409C0853089F07D
:10282000853068F0863079F0873089F40EC080EE0C
:102830000DC081EE0BC082EE09C083EE07C08EEEA4
:1028400005C085EE03C086EE01C087EE87B9369AD3
:102850003699FECF85B1789408953FB7F89494B334
:10286000982B94BB95B3282F2095922395BB9AE182
:102870009A95F1F700C094B3922394BB95B3922339
:1028800095BBEAE2EA95F1F700C093B3E7EDF0E01B
:102890003197F1F700C000003FBF89230895FF92F0
:1028A0000F931F93F82E08E010E016958F2D0E94CD
:1028B0002D14811110680150C1F7812F1F910F91C4
:1028C000FF90089594B38095982394BB95B3982373
:1028D00095BB8BE797E00197F1F700C000000895E2
:1028E0002FB7F89494B3982B94BB95B38095982305
:1028F00095BB9AE19A95F1F700C094B3982394BBE5
:1029000095B3982395BB8BEF90E00197F1F700C04A
:1029100000002FBF08952FB7F89494B3982B94BB61
:1029200095B38095982395BBEBEEF0E03197F1F7E6
:1029300000C0000094B3982394BB95B3982395BB33
:10294000F0E3FA95F1F72FBF0895FF920F931F93CD
:10295000182FF62E08E010FF04C08F2D0E9470146F
:1029600003C08F2D0E948B14015011F01695F3CFE8
:102970001F910F91FF900895682F8CEC0E94A51471
:1029800008953FB7F89494B3982B94BB95B3282F30
:102990002095922395BBEBE7F7E03197F1F700C064
:1029A000000094B3922394BB95B3922395BBE3E1CB
:1029B000F1E03197F1F700C0000093B3E3E6F6E0F1
:1029C0003197F1F700C000003FBF9095892308952B
:1029D0000F931F93CF93DF9386E090E00E9404143F
:1029E000EC0185ED8A95F1F7000086E090E00E9409
:1029F00004148C0185ED8A95F1F7000086E090E0E3
:102A00000E940414C00FD11FC80FD91FCE0163E06C
:102A100070E00E94422480E090E00E94D4212AE4E9
:102A20003CE042E45FE30E94EA1E0E94161D062F6E
:102A30008EE190E06BE171E0402F0E94EE0D00937B
:102A400080010E94A71C209180010097D9F02C37AB
:102A500010F40E94AB1C8091800187FD0CC0809116
:102A6000A6018F5F8093A601833038F01092A601F3
:102A70000E94AB1C02C01092A60180918001843894
:102A8000B8F014C0273760F48091A6018F5F80935F
:102A9000A601863038F01092A6010E94AB1C02C03D
:102AA0001092A601809180018A3710F00E94AF1C1D
:102AB00088EE94E162E370E00E94D903DF91CF9148
:102AC0001F910F9108950E94AF1C0895CF93DF933B
:102AD00082E00E94C1148CEC62E00E94A5148EEB8F
:102AE00062E00E94A514CCE4D2E082E00E944F1480
:102AF000899382E0C535D807C1F780914D02909146
:102B0000AA0187FD04C09130C9F482E018C0913059
:102B1000A9F410926200382F20E080914C0290E0DE
:102B2000822B932B909581959F4F9093A901809331
:102B3000A80180934C0290934D0203C083E08093E0
:102B4000620080914C02482F4F7020914D0230E07E
:102B50002770307094E0220F331F9A95E1F7829529
:102B60008F70822B809355026AE00E9436248093F6
:102B7000630090936400923048F490916200923028
:102B800029F4882319F481E080936200642F70E0B7
:102B9000882777FD8095982F0E94222125E535E52D
:102BA00045ED5FE30E94E41F0E94161D60936500DF
:102BB00080918701882351F480918901882331F421
:102BC00084E190E06CED70E00E94060C8FEE95E1E0
:102BD0006CEB72E00E94D903DF91CF91089582E0FF
:102BE0000E94C114882319F41092AA0103C081E045
:102BF0008093AA0182E00E94BC1484E462E00E94F7
:102C0000A51486E695E164E670E00E94D903089574
:102C10006F927F928F929F92AF92BF92CF92DF92EC
:102C2000EF92FF920F931F937B018C01CA01B901B0
:102C300020E030E04FE153E40E94E41F962E872EFF
:102C4000782E692EC801B70124EF3DEF44E75FE31A
:102C50000E94EA1E7B018C017F2D912F20E030E045
:102C600044EF52E40E94F22087FF23C06E2D7F2D97
:102C7000802F912F20E030E046E952E40E9492201C
:102C80001816BCF46E2D7F2D802F912F20E030E0A0
:102C900040E850E40E94EA1E9B01AC0160E070E055
:102CA00083E594E40E94B91E20E030E040E151E465
:102CB0002EC06E2D7F2D802F912F20E030E04AE92D
:102CC00052E40E94F22087FF31C06E2D7F2D802FAD
:102CD000912F20E030E040E452E40E949220181648
:102CE0002CF56E2D7F2D802F912F20E030E040EAD3
:102CF00051E40E94EA1E9B01AC0160E070E484E4B0
:102D000095E40E94B91E20E030E048ED51E40E94B5
:102D1000E41FD401F3012B2F382D4F2F562D0E9485
:102D2000EA1ED62EC72EB82EA92E84C06E2D7F2D5A
:102D3000802F912F20E030E048E452E40E94F220FE
:102D400087FF23C06E2D7F2D802F912F20E030E054
:102D500048EB51E40E9492201816BCF46E2D7F2D92
:102D6000802F912F20E030E040E051E40E94EA1EE5
:102D70009B01AC0160E070E086E494E40E94B91E1F
:102D800020E030E040EA50E4C2CF6E2D7F2D802F4E
:102D9000912F20E030E048EC51E40E94F22087FFC0
:102DA00023C06E2D7F2D802F912F20E030E040E357
:102DB00051E40E9492201816BCF46E2D7F2D802FB6
:102DC000912F20E030E048EC51E40E94EA1E9B0184
:102DD000AC0160E070E085EA94E40E94B91E20E056
:102DE00030E040EC50E493CF6E2D7F2D802F912F5B
:102DF00020E030E040E451E40E94F22087FD0DC065
:102E00006E2D7F2D802F912F20E030E042EF52E495
:102E10000E949220181644F00DC0DD24CC2438E422
:102E2000B32E23E4A22E06C0DD24CC249CE1B92ECF
:102E300082E4A82EA6019501652F7C2D832F9A2D63
:102E40001F910F91FF90EF90DF90CF90BF90AF90C8
:102E50009F908F907F906F9008952F923F924F9206
:102E60005F926F927F928F929F92AF92BF92CF921A
:102E7000DF92EF92FF920F931F9387E090E00E9402
:102E800004145C0186E090E00E9404147C01B5010A
:102E9000882777FD8095982F0E9422215B016C0185
:102EA000B701882777FD8095982F0E9422219B01EA
:102EB000AC01C601B5010E9408161B012C0185ED6D
:102EC0008A95F1F7000087E090E00E9404145C010D
:102ED00086E090E00E9404147C01B501882777FD0C
:102EE0008095982F0E9422215B016C01B7018827F1
:102EF00077FD8095982F0E9422219B01AC01C6018D
:102F0000B5010E9408163B014C0185ED8A95F1F749
:102F1000000087E090E00E9404145C0186E090E0ED
:102F20000E9404147C01B501882777FD8095982FB5
:102F30000E9422215B016C01B701882777FD8095F3
:102F4000982F0E9422219B01AC01C601B5010E946D
:102F500008167B018C01C201B101A40193010E94FA
:102F60008C1EA80197010E948C1E20E030E040E4F6
:102F700050E40E94E41F20E030E040EA50E40E9468
:102F8000B91E0E9482219B01AC0182EA90E06BE1B4
:102F900071E0A9010E94940E8DE297E168EE73E062
:102FA0000E94D9031F910F91FF90EF90DF90CF9077
:102FB000BF90AF909F908F907F906F905F904F9059
:102FC0003F902F900895829905C0849B03C081E0B3
:102FD00080938901B69906C0849B06C081E08093E6
:102FE000870102C010928701849904C01092870162
:102FF0001092890183EE97E164E670E00E94D903A4
:1030000008950E9437090E946A1181E098E164E600
:1030100070E00E94D9030895DF93CF9300D000D0D1
:1030200000D0CDB7DEB7DE011196ECE6F0E086E029
:1030300001900D928150E1F780919E0190919F0146
:103040008530910564F0CE01019666E070E00E9443
:10305000B30385E090E090939F0180939E018CE004
:1030600098E16CE370E00E94D90326960FB6F894BD
:10307000DEBF0FBECDBFCF91DF910895DF93CF9319
:1030800000D000D00F92CDB7DEB7DE011196E2E797
:10309000F0E085E001900D928150E1F780919E0172
:1030A00090919F018230910531F4CE01019665E047
:1030B00070E00E94B3038EE398E164E670E00E9442
:1030C000D9030F900F900F900F900F90CF91DF9139
:1030D000089580916B008330B1F40E94A71C009783
:1030E00081F081E080936B0080919E0190919F011F
:1030F000009749F082E090E090939F0180939E01B9
:1031000002C010926B0080916B00882399F40E949A
:10311000A71C009779F081E080936B0080919E015D
:1031200090919F01009731F082E090E090939F0191
:1031300080939E0180916B00813091F40E94A71CC6
:10314000009771F410926B0080919E0190919F0105
:10315000009731F081E090E090939F0180939E0171
:1031600089E698E162E370E00E94D9030895EF9246
:10317000FF920F931F93CF93DF9380919E019091C5
:103180009F01853091058CF10E94A71C009769F181
:1031900080918C0190918D0197FD23C0883291051B
:1031A0004CF4809192019091930129E0813692072D
:1031B00024F017C08C3391054CF4809192019091CA
:1031C00093012DE08934920724F00BC080359105DE
:1031D00064F4809192019091930120E189369207E5
:1031E00024F081E080938A0102C010928A018091CC
:1031F0008701882309F07DC380918901882309F024
:1032000078C38091A0018823D1F520919C01309151
:103210009D0124363105E4F0C90168EE73E00E9497
:103220005624E4E6F0E0BF010E9456248B01C90158
:10323000BF010E945624EAE0F0E0BF010E9456243C
:10324000EB01C901BF010E9456249C01C80112C0B4
:10325000C90164E670E00E945624EAE0F0E0BF0194
:103260000E945624EB01C901BF010E9456249C0113
:103270008DE090E0BE014EE050E00E94200D809174
:10328000A0018130D1F520919A0130919B01243623
:103290003105E4F0C90168EE73E00E945624E4E6CB
:1032A000F0E0BF010E9456248B01C901BF010E94BA
:1032B0005624EAE0F0E0BF010E945624EB01C90168
:1032C000BF010E9456249C01C80112C0C90164E6D6
:1032D00070E00E945624EAE0F0E0BF010E9456240C
:1032E000EB01C901BF010E9456249C018DE090E0D2
:1032F000BE014EE050E00E94200D8091A00182307E
:1033000009F07AC08091980190919901009751F449
:103310008DE090E06DE070E04DE050E020E030E0C6
:103320000E94200D2091980130919901309357020D
:103330002093560237FF33C0309521953F4F30938D
:10334000570220935602C90101978930910540F434
:103350008DE090E06DE070E04CE050E00E94200DC8
:103360002091560230915702C9010A978A3591057A
:1033700008F042C0C90164E670E00E945624EAE009
:10338000F0E0BF010E945624EB01C901BF010E9479
:1033900056249C018DE090E06CE070E02AC0C901E9
:1033A00001978930910540F48DE090E06DE070E088
:1033B0004DE050E00E94200D2091560230915702BE
:1033C000C9010A978A359105B8F4C90164E670E02D
:1033D0000E945624EAE0F0E0BF010E945624EB016F
:1033E000C901BF010E9456249C018DE090E06DE070
:1033F00070E0AE010E94200D8091A001833021F584
:103400002091960130919701C90168EE73E00E9406
:103410005624E4E6F0E0BF010E9456248B01C90166
:10342000BF010E945624EAE0F0E0BF010E9456244A
:10343000EB01C901BF010E9456249C01C8016EE046
:1034400070E0AE010E94200D8091A001843009F04F
:103450004DC0209194013091950124363105FCF046
:10346000C90168EE73E00E945624E4E6F0E0BF0173
:103470000E945624EB01C901BF010E945624EAE0D4
:10348000F0E0BF010E9456248B01C901BF010E94D8
:1034900056249C018DE090E0BE01A80125C02A3091
:1034A0003105B4F0C90164E670E00E945624EAE0F8
:1034B000F0E0BF010E945624EB01C901BF010E9448
:1034C00056249C018DE090E06DE070E0AE010CC0F0
:1034D000C9016AE070E00E9456249C018DE090E0F2
:1034E0006DE070E04DE050E00E94200D8091A00161
:1034F000853009F067C0209192013091930183E0FB
:10350000283E380734F1C90160E177E20E94562471
:10351000E8EEF3E0BF010E9456247B01C901BF0120
:103520000E945624E4E6F0E0BF010E945624EB011D
:10353000C901BF010E945624EAE0F0E0BF010E94E9
:1035400056248B01C901BF010E9456249C01C7016A
:103550001FC024363105FCF0C90168EE73E00E94FB
:103560005624E4E6F0E0BF010E945624EB01C901B5
:10357000BF010E945624EAE0F0E0BF010E945624F9
:103580008B01C901BF010E9456249C018DE090E08F
:10359000BE01A80115C0C90164E670E00E9456246E
:1035A000EAE0F0E0BF010E945624EB01C901BF012F
:1035B0000E9456249C018DE090E06DE070E0AE0129
:1035C0000E94200D8091A001863009F04DC020910D
:1035D00090013091910124363105FCF0C90168EE6B
:1035E00073E00E945624E4E6F0E0BF010E945624F6
:1035F000EB01C901BF010E945624EAE0F0E0BF01DF
:103600000E9456248B01C901BF010E9456249C01CF
:103610008DE090E0BE01A80125C02A303105B4F04C
:10362000C90164E670E00E945624EAE0F0E0BF01C0
:103630000E945624EB01C901BF010E9456249C013F
:103640008DE090E06DE070E0AE010CC0C9016AE071
:1036500070E00E9456249C018DE090E06DE070E0E7
:103660004DE050E00E94200D8091A0018730D1F5FF
:1036700020918E0130918F0124363105E4F0C9018B
:1036800068EE73E00E945624E4E6F0E0BF010E9479
:1036900056248B01C901BF010E945624EAE0F0E0E4
:1036A000BF010E945624EB01C901BF010E945624AC
:1036B0009C01C80112C0C90164E670E00E94562452
:1036C000EAE0F0E0BF010E945624EB01C901BF010E
:1036D0000E9456249C018DE090E0BE014EE050E037
:1036E0000E94200D8091A001883009F0C7C0809110
:1036F0008C0190918D01009751F48DE090E06DE088
:1037000070E04DE050E020E030E00E94200D20917C
:103710008C0130918D01309357022093560237FF70
:1037200059C0309521953F4F309357022093560250
:10373000C90101978930910540F48DE090E06DE07A
:1037400070E04CE050E00E94200D20915602309134
:103750005702C9010A978A359105B8F4C90164E690
:1037600070E00E945624EAE0F0E0BF010E94562477
:10377000EB01C901BF010E9456249C018DE090E03D
:103780006CE070E0AE010E94200D20915602309155
:103790005702243631050CF471C0C90168EE73E09C
:1037A0000E945624E4E6F0E0BF010E945624EB019B
:1037B000C901BF010E945624EAE0F0E0BF010E9467
:1037C00056248B01C901BF010E9456249C018CE044
:1037D00090E050C0C90101978930910540F48DE017
:1037E00090E06DE070E04DE050E00E94200D2091EF
:1037F000560230915702C9010A978A359105B8F4EB
:10380000C90164E670E00E945624EAE0F0E0BF01DE
:103810000E945624EB01C901BF010E9456249C015D
:103820008DE090E06DE070E0AE010E94200D2091EF
:103830005602309157022436310504F1C90168EE71
:1038400073E00E945624E4E6F0E0BF010E94562493
:10385000EB01C901BF010E945624EAE0F0E0BF017C
:103860000E9456248B01C901BF010E9456249C016D
:103870008DE090E0BE01A8010E94200D8091A00182
:103880008930B9F5009182010436E8F0802F90E08C
:1038900068EE73E00E94562464E670E00E945624AD
:1038A000FB01802F64E60E943624892F2AE0622FD4
:1038B0000E943624482F802F0E943624292F8DE025
:1038C00090E0BF0112C0802F64E60E943624892F49
:1038D0002AE0622F0E943624482F802F0E9436242F
:1038E000292F8DE090E06DE070E050E030E00E9424
:1038F000200D87EB98E162E370E00E94D903DF912D
:10390000CF911F910F91FF90EF90089508958091AE
:103910009E0190919F01009729F08091A0018F5FF7
:103920008093A0018091A0018A3010F01092A00134
:1039300080918701882351F480918901882331F493
:1039400082E890E06CE770E00E948F0F089581E0BC
:10395000849B80E0089581E0809386010895109211
:1039600086010895E8E5F2E060E070E0CB01219186
:10397000620F711D811D911D22E0EA38F207B9F72F
:1039800022E330E040E050E00E946924209382016D
:10399000233620F081E08093880102C010928801D4
:1039A00082EB9CE168EE73E00E94D9030895849B4A
:1039B00036C085E090E00E9404149C01B90188277C
:1039C00077FD8095982F0E9422212AE43CE042E472
:1039D0005FE30E94EA1E0E94161D8091AB018823BE
:1039E00051F4E8E5F2E0619332E0EA38F307D9F701
:1039F00082E38093AB018091AB01813318F091E0B9
:103A00009093AC01E82FF0E0E95AFD4F60838F5F9F
:103A10008093AB01833319F481E08093AB0187ED90
:103A20009CE164E670E00E94D9030895EF92FF9252
:103A30000F931F937B018C0120E030E040E05FE4B6
:103A40000E94C22087FD11C0C801B70120E030E00C
:103A500040E05FE40E94B91E0E9482219B01AC01FC
:103A6000205030404040504806C0C801B7010E9475
:103A700082219B01AC01B901CA011F910F91FF90F6
:103A8000EF900895A0E0B0E0E8E4FDE10C948F240D
:103A9000FC01EA018081823008F438C1DB019C918D
:103AA000923008F430C1843059F4943009F02EC1BA
:103AB000918111968C911197981709F021C126C117
:103AC000943009F420C19230B1F4823009F01EC163
:103AD000CA01AF0128E0DA010D90AD01DC010D92C1
:103AE000CD012150C1F7DB0111968C911197918185
:103AF000892389830AC1823009F405C1C280D38039
:103B0000DB0112966D907C9013972481358146815C
:103B100057811496ED90FD900D911C911797C60159
:103B2000861997095C0197FF04C0AA24BB24A81A30
:103B3000B90AB0E2AB16B1040CF061C01816190650
:103B40006CF5370148010A2C04C096948794779449
:103B500067940A94D2F781E090E0A0E0B0E00A2CEC
:103B600004C0880F991FAA1FBB1F0A94D2F70197A0
:103B7000A109B1098E219F21A023B123EE24FF24A6
:103B80008701E3940097A105B10519F4EE24FF2401
:103B90008701E628F728082919293CC00097D1F1A8
:103BA000CA0CDB1C39014A010A2C04C09694879484
:103BB000779467940A94D2F781E090E0A0E0B0E0B7
:103BC0000A2C04C0880F991FAA1FBB1F0A94D2F7A2
:103BD0000197A109B10982239323A423B52321E0EE
:103BE00030E040E050E00097A105B10519F420E075
:103BF00030E0A90126293729482959290BC06C141E
:103C00007D0424F4EE24FF24870104C0630120E036
:103C100030E0A9018181FB019181891709F445C038
:103C2000882349F0D801C701821B930BA40BB50B65
:103C30009C01AD0104C02E193F09400B510B57FDEB
:103C400004C01982DB82CA820BC081E08983DB82D7
:103C5000CA8250954095309521953F4F4F4F5F4F09
:103C60002C833D834E835F830DC0880F991FAA1F4D
:103C7000BB1F8C839D83AE83BF838A819B81019709
:103C80009B838A838C819D81AE81BF819C01AD0124
:103C900021503040404050402F3FEFEF3E07EFEFC4
:103CA0004E07EFE35E0708F30BC08983DB82CA820D
:103CB0002E0D3F1D401F511F2C833D834E835F837C
:103CC00083E088832C813D814E815F8157FF1DC039
:103CD000DA01C90181709070A070B0705695479557
:103CE00037952795822B932BA42BB52B8C839D8303
:103CF000AE83BF838A819B8101969B838A8305C0A3
:103D0000E7E7F0E003C0FB0101C0FE01CF01CDB742
:103D1000DEB7EEE00C94AB24A0E2B0E0E2E9FEE115
:103D20000C94972469837A838B839C832D833E83B1
:103D30004F83588789E0E82EF12CEC0EFD1ECE0152
:103D40000196B7010E9474238E010F5E1F4FCE01B2
:103D50000596B8010E947423C701B801AE01475E01
:103D60005F4F0E94421D0E94A622A096E6E00C949E
:103D7000B324A0E2B0E0EFEBFEE10C94972469835A
:103D80007A838B839C832D833E834F8358878E0158
:103D9000075F1F4FCE010196B8010E94742391E185
:103DA000E92EF12CEC0EFD1ECE010596B7010E9406
:103DB00074238A8991E089278A8BC801B701AE01F3
:103DC000475E5F4F0E94421D0E94A622A096E6E039
:103DD0000C94B324A0E2B0E0E0EFFEE10C948B245D
:103DE00069837A838B839C832D833E834F8358879B
:103DF000CE010196BE01675F7F4F0E947423CE0102
:103E00000596BE016F5E7F4F0E94742399859230A4
:103E100078F089898230C0F0943019F4823041F40E
:103E2000CBC0843019F4923079F4C6C0923051F48A
:103E300081E02A859A89291709F480E08A87CE01D2
:103E40000996BCC0823051F481E02A859A892917ED
:103E500009F480E08A8BCE014196B0C06D847E84E7
:103E60008F849888ED88FE880F89188DE0E2F0E055
:103E700080E090E0DC01AA24BB24650120E030E072
:103E8000A901B3016170707061157105D1F02E0D3B
:103E90003F1D401F511F15012601280E391E4A1EC5
:103EA0005B1E81E090E0A0E0B0E02E153F054007EA
:103EB000510718F080E090E0DC01820D931DA41DF5
:103EC000B51DAA0CBB1CCC1CDD1C17FF09C061E092
:103ED000262E312C412C512CA228B328C428D528B9
:103EE000319749F0EE0CFF1C001F111F9694879428
:103EF00077946794C6CF6B897C89EB85FC856E0FC0
:103F00007F1F6E5F7F4F7C8F6B8F61E0EA857A89C0
:103F1000E71709F460E06A8F6B8D7C8D10C0FC019F
:103F2000E170F070309729F05695479537952795B1
:103F30005068B695A795979587956F5F7F4FB7FDAA
:103F4000EECF0CC0880F991FAA1FBB1F57FD8160C1
:103F5000220F331F441F551F615070408030E0E036
:103F60009E07E0E0AE07E0E4BE0760F36B8F7C8F56
:103F70006FE7E62EF12C012D112DE822F9220A23FC
:103F80001B2360E4E616F1040105110561F487FDC9
:103F90000AC0211531054105510529F0805C9F4F6C
:103FA000AF4FBF4F80788D8F9E8FAF8FB8A383E0C8
:103FB000898FCE01499602C087E790E00E94A62231
:103FC000A096E2E10C94A724A8E1B0E0EAEEFFE1BC
:103FD0000C94932469837A838B839C832D833E8303
:103FE0004F8358878E01075F1F4FCE010196B8019E
:103FF0000E94742381E1E82EF12CEC0EFD1ECE010F
:104000000596B7010E9474239985923008F483C005
:104010008989823008F47BC02A853A8923272A8738
:10402000943011F0923021F4981709F06CC071C0EF
:10403000843039F41D861E861F86188A1C861B86CE
:104040006AC0823019F484E0898765C08B859C85BD
:104050002B893C89821B930B9C878B872D853E8502
:104060004F855889ED88FE880F89188D2E153F05DC
:104070004007510738F4220F331F441F551F019783
:104080009C878B876FE170E0A12CB12CC12CA0E440
:10409000DA2E80E090E0DC012E153F054007510745
:1040A00040F08A299B29AC29BD292E193F09400BD4
:1040B000510BD694C794B794A794220F331F441F73
:1040C000551F6150704041F76FE7E62EF12C012D2E
:1040D000112DE822F9220A231B2360E4E616F104DD
:1040E0000105110561F487FD0AC02115310541055F
:1040F000510529F0805C9F4FAF4FBF4F80788D876F
:104100009E87AF87B88B8E01075F1F4F04C0870162
:1041100002C007E710E0C8010E94A6226896EAE004
:104120000C94AF24A8E1B0E0E8E9F0E20C94972405
:1041300069837A838B839C832D833E834F83588747
:104140008E01075F1F4FCE010196B8010E947423B4
:1041500081E1E82EF12CEC0EFD1ECE010596B70193
:104160000E9474238985823040F08989823028F04A
:10417000C801B7010E94DD2301C08FEF6896E6E019
:104180000C94B324A8E1B0E0E8ECF0E20C9497249E
:1041900069837A838B839C832D833E834F835887E7
:1041A0008E01075F1F4FCE010196B8010E94742354
:1041B00081E1E82EF12CEC0EFD1ECE010596B70133
:1041C0000E9474238985823040F08989823028F0EA
:1041D000C801B7010E94DD2301C08FEF6896E6E0B9
:1041E0000C94B324A8E1B0E0E8EFF0E20C9497243B
:1041F00069837A838B839C832D833E834F83588787
:104200008E01075F1F4FCE010196B8010E947423F3
:1042100081E1E82EF12CEC0EFD1ECE010596B701D2
:104220000E9474238985823040F08989823028F089
:10423000C801B7010E94DD2301C081E06896E6E075
:104240000C94B324A8E0B0E0E8E2F1E20C949724E7
:104250007B018C0183E08983D801C7018827B7FDE2
:1042600083959927AA27BB27282F8A83E114F10475
:104270000105110519F482E0898337C08EE190E0D1
:104280009C838B83222389F080E0E81680E0F80687
:1042900080E0080780E8180769F110950095F09410
:1042A000E094E11CF11C011D111DED82FE820F83C3
:1042B0001887C801B7010E944C229C012150304050
:1042C0001216130694F4022E04C0EE0CFF1C001FFD
:1042D000111F0A94D2F7ED82FE820F8318878EE1B8
:1042E00090E0821B930B9C838B83CE0101960E94EE
:1042F000A62204C060E070E080E09FEC2896E6E033
:104300000C94B324ACE0B0E0E8E8F1E20C949B2418
:1043100069837A838B839C83CE010196BE016B5F98
:104320007F4F0E9474238D81823081F1823070F141
:10433000843021F48E81882369F10AC02F81388569
:1043400037FD24C06E812F3131053CF0662311F119
:1043500020E030E040E050E821C08EE190E0821B98
:10436000930B29853A854B855C8504C05695479506
:10437000379527958A95D2F7662381F05095409519
:10438000309521953F4F4F4F5F4F08C020E030E000
:10439000A90104C02FEF3FEF4FEF5FE7B901CA015A
:1043A0002C96E2E00C94B724A8E0B0E0EAEDF1E24C
:1043B0000C9495247B018C011A826115710581058D
:1043C000910519F482E089835FC083E089838EE1DF
:1043D000C82ED12CDC82CB82ED82FE820F8318871F
:1043E000C801B7010E944C22FC013197F7FF3AC087
:1043F000AA27BB27AE1BBF0B21E030E040E050E016
:104400000A2E04C0220F331F441F551F0A94D2F7EF
:1044100021503040404050402E213F214023512325
:1044200061E070E080E090E0211531054105510523
:1044300019F460E070E0CB0104C016950795F7947D
:10444000E794AA95D2F7E62AF72A082B192BED82D2
:10445000FE820F8318878EE190E08E1B9F0B9C835A
:104460008B8312C0309781F00E2E04C0EE0CFF1C1F
:10447000001F111F0A94D2F7ED82FE820F83188766
:10448000CE1ADF0ADC82CB82CE0101960E94A622E0
:104490002896E8E00C94B124AF92BF92CF92DF92BD
:1044A000EF92FF920F931F937B018C0180E0E8163F
:1044B00080E0F80681E0080780E0180758F4EFEF85
:1044C000EE16F1040105110509F090F480E090E08A
:1044D000DC0117C0F0E0EF16F0E0FF06F0E00F0798
:1044E000F1E01F0750F480E190E0A0E0B0E009C0E7
:1044F00088E090E0A0E0B0E004C088E190E0A0E0B7
:10450000B0E020E230E040E050E0281B390B4A0BDD
:104510005B0B5701680104C0D694C794B794A79465
:104520008A95D2F7D601C50181589F4FFC01808141
:10453000281B310941095109C9011F910F91FF90B1
:10454000EF90DF90CF90BF90AF900895EF92FF92E1
:104550000F931F93CF93DF93FC0124813581468114
:10456000578161818081823020F44061EFEFF0E07B
:10457000A3C0843009F49BC0823009F492C0211595
:1045800031054105510509F48FC00280F381E02D0A
:104590008FEFE238F8070CF05AC0C2E8DFEFCE1B0D
:1045A000DF0BCA31D1056CF579018A010C2E04C0EC
:1045B00016950795F794E7940A94D2F781E090E076
:1045C000A0E0B0E00C2E04C0880F991FAA1FBB1FEB
:1045D0000A94D2F70197A109B10982239323A42356
:1045E000B52321E030E040E050E00097A105B1059F
:1045F00019F420E030E0A9012E293F29402B512B4E
:1046000003C020E030E0A901DA01C9018F77907082
:10461000A070B07080349105A105B10539F427FF71
:1046200009C0205C3F4F4F4F5F4F04C0215C3F4F9C
:104630004F4F5F4FE1E0F0E0203080E0380780E04E
:10464000480780E4580728F5E0E0F0E022C0E038B1
:10465000F1056CF5E158FF4FDA01C9018F779070D1
:10466000A070B07080349105A105B10539F427FF21
:1046700009C0205C3F4F4F4F5F4F04C0215C3F4F4C
:104680004F4F5F4F57FF05C0569547953795279574
:10469000319687E056954795379527958A95D1F7B6
:1046A0000BC0E0E0F0E005C0E0E0F0E005C0EFEFB7
:1046B000F0E020E030E0A9018E2F879588278795CC
:1046C000942F9F77679566276795E695E22EA92F29
:1046D000A82BFE2FF62B622F732F8A2F9F2FCDB77B
:1046E000DEB7E6E00C94B324DC01FB012C911196BB
:1046F0003C91119712968C911297482F4F7750E06A
:10470000982F991F9927991F13966C911397862FAD
:10471000880F892B90E0661F6627661F61830097CC
:1047200039F5211531054105510511F482E029C003
:1047300082E89FEF9383828367E0220F331F441F39
:10474000551F6A95D1F783E0808309C0220F331F7C
:10475000441F551F82819381019793838283203068
:1047600080E0380780E0480780E4580778F320C0ED
:104770008F3F910579F4211531054105510519F453
:1047800084E08083089544FF03C081E0808310C0EB
:1047900010820EC08F5790409383828383E0808382
:1047A00087E0220F331F441F551F8A95D1F75064AD
:1047B00024833583468357830895FC01DB01908170
:1047C000923008F449C08C91823008F445C094308E
:1047D00051F461818430B1F511962C91119730E03C
:1047E000261B310941C0843021F0923041F48230DF
:1047F000B1F111968C9111978823A1F12DC061819F
:10480000823001F111968C9111976817D9F42281A9
:10481000338112968D919C9113978217930794F090
:1048200028173907BCF024813581468157811496B9
:104830008D919D910D90BC91A02D82179307A40797
:10484000B50718F4662341F00DC0281739074A0749
:104850005B0728F4662331F021E030E005C020E05A
:1048600030E002C02FEF3FEFC9010895991B79E0B6
:1048700004C0991F961708F0961B881F7A95C9F7F0
:1048800080950895AA1BBB1B51E107C0AA1FBB1F3F
:10489000A617B70710F0A61BB70B881F991F5A95CC
:1048A000A9F780959095BC01CD01089597FB092E3D
:1048B00007260AD077FD04D0E5DF06D000201AF4E1
:1048C000709561957F4F0895F6F7909581959F4F6C
:1048D0000895A1E21A2EAA1BBB1BFD010DC0AA1F41
:1048E000BB1FEE1FFF1FA217B307E407F50720F059
:1048F000A21BB30BE40BF50B661F771F881F991FD4
:104900001A9469F760957095809590959B01AC011C
:10491000BD01CF0108952F923F924F925F926F9207
:104920007F928F929F92AF92BF92CF92DF92EF923F
:10493000FF920F931F93CF93DF93CDB7DEB7CA1BC0
:10494000DB0B0FB6F894DEBF0FBECDBF09942A88EB
:10495000398848885F846E847D848C849B84AA8493
:10496000B984C884DF80EE80FD800C811B81AA8120
:10497000B981CE0FD11D0FB6F894DEBF0FBECDBFEB
:08498000ED010895F894FFCF4A
:104988004D01030102030503033737038210F121A8
:1049980001A58110F1810300000000000000000063
:1049A80001020203030303040404040404040405C9
:1049B800050505050505050505050505050505069E
:1049C800060606060606060606060606060606067F
:1049D800060606060606060606060606060606076E
:1049E800070707070707070707070707070707074F
:1049F800070707070707070707070707070707073F
:104A0800070707070707070707070707070707072E
:104A1800070707070707070707070707070707081D
:104A280008080808080808080808080808080808FE
:104A380008080808080808080808080808080808EE
:104A480008080808080808080808080808080808DE
:104A580008080808080808080808080808080808CE
:104A680008080808080808080808080808080808BE
:104A780008080808080808080808080808080808AE
:104A8800080808080808080808080808080808089E
:104A98000808080808080808080808080808080096
:00000001FF
